:100000000C9463010C94AA010C94AA010C94AA010B
:100010000C94AA010C94AA010C94AA010C94AA01B4
:100020000C94AA010C94AA010C94B9200C948D2173
:100030000C9412160C94AA010C94AA010C94AA0117
:100040000C94AA010C94AA010C94AA010C94AA0184
:100050000C94AA010C945D160C94AA010C94AA01AC
:100060000C94AA010C94AA010C94AA010C94AA0164
:100070000C94AA010C94AA010C94AA010C94AA0154
:100080000C94AA010C94AA010C94AA010C94AA0144
:100090000C9486090C94AA010C94AA010C94AA0150
:1000A0000C94AA010C94AA010C94AA0129001E0028
:1000B0001F00200021002200000000002B0014007F
:1000C0001A000800150017000000000039000400A5
:1000D0001600070009000A0000000000E1001D00F2
:1000E0001B0006001900000000000000E000E30013
:1000F000E2002C00000000000000000023002400AB
:100100002500260027002D002E002A001C001800C4
:100110000C00120013002F003000310000000B0013
:100120000D000E000F003300340028000000050011
:1001300011001000360037003800E1000000000018
:1001400000002C00E200E3007600E00012036B00E8
:100150006500790062006F006100720064000000B9
:10016000160371006D006B006200750069006C0081
:1001700064006500720000000403090409023B00EA
:10018000020100A0FA090400000103010100092195
:10019000110100012240000705810308000A09043B
:1001A0000100010300000009211101000122BC002F
:1001B0000705820320000A1201100100000008ED6B
:1001C000FE606001000102000105010902A1018534
:1001D000020901A10005091901290515002501954C
:1001E0000575018102950175038101050109300939
:1001F000311581257F9502750881060938158125FD
:100200007F950175088106050C0A38021581257F46
:10021000950175088106C0C005010980A10185030B
:1002200019012AB700150126B70095017510810044
:10023000C0050C0901A101850419012AA0021501BC
:1002400026A002950175108100C005010906A101D3
:100250008505050719E029E71500250195087501B1
:1002600081020507190029EF1500250195F0750198
:10027000810205081901290595057501910295016D
:1002800075039101C005010906A101050719E029BF
:10029000E715002501950875018102950175088112
:1002A000010507190029FF150026FF0095067508AE
:1002B000810005081901290595057501910295012F
:1002C00075039101C00011241FBECFEFDAE0DEBF3D
:1002D000CDBF04B603FE27C08091CA029091CB0225
:1002E000A091CC02B091CD028730904BA740B04B8B
:1002F000D1F41092CA021092CB021092CC0210924A
:10030000CD0214BE84B7877F84BF0FB6F894A8953A
:1003100080916000886180936000109260000FBE41
:10032000E0E0F8E3099511E0A0E0B1E0E8E2F8E4EC
:1003300002C005900D92AC39B107D9F722E0ACE9C3
:10034000B1E001C01D92AA3CB207E1F70E94FB1D7B
:100350000C94AF230C94000081E0089581E008958F
:100360000C94AE0108950C94B2011F93CF93DF93C8
:1003700000D000D00F92CDB7DEB749835A836B838C
:100380003091B80189819A8131111DC06623B9F07D
:100390002223A9F00E941613182F682F89819A81B1
:1003A0000E94C11269817A81812F0F900F900F9066
:1003B0000F900F90DF91CF911F910C9461020E94DA
:1003C000EE12182FEFCF0E94161369817A81EDCFBC
:1003D000FC01262F408151816281738184810C94BC
:1003E000B501CF93DF93EC0160E00E94E801BE010C
:1003F000DF91CF910C94B3010E944D14811102C082
:100400000E94FB140C944B040C944E0408950E941B
:10041000A00E0E9406022FEF84E39CE02150804052
:100420009040E1F700C000000C9481160F931F93D9
:10043000CF93DF93EC0161E00E94E8018C01BE01E3
:100440000E94B001882329F1BE01C8010E94B906AB
:100450008823F9F0BE01C8010E940B078823C9F068
:10046000BE01C8010E942E08882399F08A81882342
:1004700039F001158CE5180751F00F3D1C4579F056
:10048000CE01DF91CF911F910F910C94AC010E948E
:10049000070280E0DF91CF911F910F9108950E9494
:1004A000FB14F7CF08950C94520281E008950C9448
:1004B0005502CF93C82F0E9453028C2FCF910C94DA
:1004C0005702E72FF0E09AE0899FE00DF11D11241B
:1004D00083E0EE0FFF1F8A95E1F7E60FF11DEE0FA7
:1004E000FF1FE455FF4F859194910895CF93DF93BB
:1004F0000E9461020E947003EC01811521E59207C0
:1005000008F042C0811530E5930708F09DC0883E91
:10051000910530F5803E910508F092C0883A91052A
:1005200088F4853A910508F084C08130910509F47A
:1005300087C0009709F484C0049708F081C0D0E018
:10054000C0E07EC08F3B9105D0F7C85AD0E0CC0FF9
:10055000DD1FC05DDE4F0990D881C02DD46470C00E
:100560008115904250F4C11581E0D80708F068C0A9
:10057000C03FD10520F3D06563C0C11590E4D90711
:10058000F0F2DF70D06A5CC0811525E5920700F5B6
:10059000811534E5930708F08BC0811543E5940776
:1005A00008F073C0C11582E5D80708F469C0CE0110
:1005B0008370992721E030E002C0220F331F8A9513
:1005C000E2F7C695C69580E2C89FE001112454C0A9
:1005D000C11599E5D907A8F4C11528E5D20708F097
:1005E0006CC0C11536E5D30708F0A9CF8C2F0E9447
:1005F0000704C82FD0E0DC2FCC27CC27DF71D062D6
:100600001FC0C1154AE5D40708F45CC0CE0190565E
:100610008115904208F093CF8D2F8F710E940704AF
:1006200090E0982F882788279F719C012C2BE90147
:10063000E6CFC55AD0E0C25ADE4FC881D0E0D064C0
:10064000CE01DF91CF910895E4E096958795EA95E4
:10065000E1F783702C2F26952695237040E2249F86
:1006600090011124382B8C2F8370C1E0D0E002C0A0
:10067000CC0FDD1F8A95E2F7C22BD32BDC68E0CFCD
:10068000DC2FCC27C16FD06ADBCF8370992721E0A4
:1006900030E002C0220F331F8A95E2F7C695C69557
:1006A00090E2C99FE0011124C22BD32BDA68C8CF96
:1006B000D82FCC27C46FD06AC3CFDC2FCC27C06F14
:1006C000D06ABECF8C2F8F700E94070434E0D6957D
:1006D000C7953A95E1F7CF709C2FEC01D069B0CF68
:1006E00082389105B1F1B0F48133910509F475C0F8
:1006F00048F48932910509F469C08A32910509F4F8
:1007000073C008958533910509F459C08933910563
:1007100001F10895833E9105A9F138F4803E9105D9
:10072000F9F0823E910549F10895863E9105A9F1BF
:10073000873E9105C9F1843E910519F52091BC02CF
:1007400021FF1FC08091BB0284FD14C087EE90E0A2
:1007500008952091BB022370A1F080EE90E00895EF
:100760002091BB0220FD47C03091BC0230FF09C080
:1007700024FF44C090E080E004C02091BB0222FD31
:10078000F7CF08952091BB0222FD3BC03091BC02FF
:1007900030FDE3CF24FFF5CFEDCF2091BB0223FF47
:1007A000F0CF24FDE7CFD2CF2091BB0223FD2CC098
:1007B0003091BC0231FFEECF84EE90E0089520919D
:1007C000BB0225FFDECF89E290E008952091BB02B5
:1007D00025FFD7CF85E390E008952091BB0226FF47
:1007E000D0CF8AE290E008952091BB0226FFC9CFC6
:1007F00081E390E0089589E390E0089583EE90E02E
:10080000089582EE90E0089586EE90E0089590912C
:10081000BB0292FF06C0282F28712830F9F4877F89
:10082000846093FF06C0282F28712831F1F4877E59
:1008300084612091BC0220FF06C0382F3871383007
:10084000D9F4877F816021FF06C0282F28712831C5
:10085000D1F4877E816194FD877E0895282F2471CD
:100860002430F9F68B7F8860DCCF282F2471243167
:1008700001F78B7E8861DDCF382F3171313019F768
:100880008E7F8860E0CF282F2171213121F78E7E65
:100890008861E1CF08950C944A0408950C944D04A6
:1008A000E82FF0E0E357FD4F80810895089580EA36
:1008B0008A95F1F70895F894E82FE295EF70F0E04B
:1008C00031A1282F2F7081E090E001C0880F2A9578
:1008D000EAF7982F9095932391A392A1892B82A355
:1008E0007894089508950F931F93CF93DF93CDB716
:1008F000DEB762970FB6F894DEBF0FBECDBF0E9481
:10090000000680911201811132C0FE01359686E009
:10091000DF011D928A95E9F781E3898387EF8A8356
:1009200086EF8B8385EF8C8384EF8D83CE010196D8
:10093000E8E0F1E09E01255F3F4FDC014D91CD01E4
:100940004193A217B307C9F728E0E8E2F1E0DE011E
:100950001B9601900D922A95E1F7FC01A0E0B1E011
:10096000CE01439621912D93E817F907D9F780918D
:10097000120195E0811190E09093980285E0891B27
:100980008093970208E011E0F80181918F010E94A5
:100990005B04F1E00D301F07B9F700E011E0D8016A
:1009A0008D918D010E945B04B1E008301B07B9F7FF
:1009B000E3E8F2E0ADE8B2E011921D9282E0ED389A
:1009C000F807D1F785E00E949E050E94FC0162961F
:1009D0000FB6F894DEBF0FBECDBFDF91CF911F9150
:1009E0000F910C940A060E94EA058823F9F0809181
:1009F000970290E083579D4F0E941106811113C00A
:100A000080919C018F5F80939C01863050F0E09133
:100A10009702F0E0E357FD4F108211821282138299
:100A200014820C94040210929C01FBCF80919802D6
:100A300090E083579D4F0E9420060C947204AF9261
:100A4000BF92CF92DF92EF92FF920F931F93CF93BB
:100A5000DF93C8E0D1E003E812E08DE0C82E81E02A
:100A6000D82EB12CEE24E394F12C8991F894E82F40
:100A7000E295EF70F0E021A18F70A70102C0440F52
:100A8000551F8A95E2F7CA01922F982B91A392A144
:100A90008095892382A378940E945704E0E0F1E0D6
:100AA00030E020E0A12C4191A42FA295AF70B0E0DE
:100AB00090968C9190E04F7002C0959587954A95DD
:100AC000E2F780FD37C08E2D022E01C0880F0A94F8
:100AD000EAF7A82A2F5F3F4F2830310521F7FE01A2
:100AE000319780810E945B04F8018081A81621F172
:100AF000A08281E0B82A0F5F1F4FCC16DD0609F0F7
:100B0000B4CF6091980270E063577D4F2B2D45E084
:100B100083E892E00E949F050E94F3048B2DDF91F1
:100B2000CF911F910F91FF90EF90DF90CF90BF90EA
:100B3000AF90089580E0CDCF80E0DCCF0895FF92A4
:100B40000F931F93CF93DF93F82E092F162FD72FD4
:100B5000C42F222349F081E080939F010E94421616
:100B600090939E0180939D0180919F018823A1F025
:100B700080919D0190919E010E944E16069760F013
:100B8000EF2DF02FA12FBD2FCE0FDF2FD11DEC1792
:100B9000FD0741F410929F01DF91CF911F910F91BA
:100BA000FF90089581918D93F2CF88EC9091E300AE
:100BB00097FD0EC0EFE3FCE93197F1F700C00000AC
:100BC0008150A1F70E943E201092C10280E008955A
:100BD00081E008958091A001811107C00E94D50590
:100BE00081110AC082E08093A00181E09091A00170
:100BF000913009F080E0089581E0F5CF0C94EA058A
:100C00000E94FE05809312010E94EA0581110C9456
:100C1000290608950E94EA05811102C00C942B0652
:100C200008950F931F9304E610E025E030E0AC0137
:100C300060E082E30E94310981E01F910F910895E5
:100C4000FC0195E0A9E9B2E001900D929A95E1F7D7
:100C500008950C94580882E30C948009AF92BF92D7
:100C6000CF92DF92EF92FF920F931F93CF93DF9378
:100C70007C015B01C42FD22FFC0182818823F9F013
:100C80004093A3010E9442169093A2018093A10178
:100C900080E28C0F883008F061C0C77081E001C02D
:100CA000880FCA95EAF7DF91CF911F910F91FF90BE
:100CB000EF90DF90CF90BF90AF900C94310C1091DB
:100CC000A301141340C08091A1019091A2010E9440
:100CD0004E166C01B701C5010E941611C816D9063F
:100CE00090F5C0E2CD0F1D17B9F080E2810F88307A
:100CF00040F4177081E001C0880F1A95EAF70E944E
:100D0000380CC83048F481E09D2F977001C0880FDF
:100D10009A95EAF70E94310C802F0E941E0CC83071
:100D2000E8F4D77081E001C0880FDA95EAF7DF9127
:100D3000CF911F910F91FF90EF90DF90CF90BF90D8
:100D4000AF900C94380C80E28C0F883038F4C77068
:100D500081E001C0880FCA95EAF7E9CFDF91CF9112
:100D60001F910F91FF90EF90DF90CF90BF90AF90C9
:100D700008950F939C01CB01243F4CE5340759F1B2
:100D8000A8F4293DFCE53F0701F12A3D4CE5340775
:100D9000D1F1283D3C4591F406E221EE41EE68EDAB
:100DA0007CE50E942E0680E00F910895263FFCE529
:100DB0003F07E9F0B0F0273F3C45F9F0FC018281A4
:100DC000882339F11092A301EFCF07E225EE45EE1B
:100DD00069ED7CE5E6CF06E221EE40EE64EF7CE5CE
:100DE000E0CF07E225EE44EE65EF7CE5DACF06E2E0
:100DF00021EE42EE66EF7CE5D4CF07E225EE46EE2B
:100E000067EF7CE5CECF08E221E045EE6AED7CE5B8
:100E1000C8CF81E0C9CFCF93DF93EC01FB01828182
:100E2000882309F419C1C230FCE5DF07C0F1C631DF
:100E30009CE5D90730F09E012B5F3C4529303105F8
:100E400070F50E946A149093BC028093BB02C0317B
:100E5000ECE5DE0709F4CFC008F05BC0C8308CE5D4
:100E6000D80709F4B6C088F5C430ECE5DE0709F40C
:100E7000A8C0C0F4C2308CE5D80709F49CC08091AA
:100E8000BB028260C330DC4509F498C08091BB028C
:100E90009091BC020E9478140E94A00E80E0DF9125
:100EA000CF9108958091BB028061C630ECE5DE07EA
:100EB00009F484C08091BB028860C730DC4508F427
:100EC0007DC08091BB02806279C0CC308CE5D807B0
:100ED00009F489C070F48091BB028C60CA30ECE5E3
:100EE000DE0709F46BC008F478C08091BB028E7FE6
:100EF00065C0CE308CE5D80709F479C08091BB027B
:100F00008B7FCF30DC4508F459C08091BB028F7EC7
:100F100055C0CC3FECE5DE0709F457C030F5C331CE
:100F20008CE5D80709F46FC078F4C131ECE5DE0731
:100F300009F465C0C231DC4509F0A8CF0E94A00EBB
:100F40008091BB028F773AC0C5318CE5D80709F490
:100F500062C008F476C08091BC028160CB3FDC4562
:100F600009F094CF8093BC0291CFC115FDE5DF0756
:100F700009F44DC088F48091BC028D7FCE3F9CE582
:100F8000D90781F38091BC028E7FCF3FDC4550F3BF
:100F90008091BC028360E6CFC230FDE5DF0709F433
:100FA00059C008F444C080E0C330DD4509F06ECF7D
:100FB0000E94FD146BCF8091BB0281608093BB02C5
:100FC00065CF8091BB028460F9CF8091BC028260C2
:100FD000C9CF8091BB028064F1CF0E94A00E8091A6
:100FE000BB028068EBCF8091BB028D7FE7CF809101
:100FF000BB02877FE3CF8091BB028F7DDFCF8091E3
:10100000BB028F7BDBCF8091BB02837FD7CF8091E8
:10101000BC028C7FA7CF8091BB0282FB992790F9FD
:1010200021E0922790FB82F990FB83F9C7CF809152
:10103000BC02982F909591708E7F892B90FB81F93F
:1010400091CF0E94A00E9091BB02892F97FB87F948
:101050008058B4CF81E0ACCF81E021CFCF93DF9334
:10106000EB0186319C4511F50E94AB139A819923BF
:1010700099F08A7A91E009F490E09093A4018111AB
:1010800009C089E20E9486130E94EA1380E0DF9182
:10109000CF91089585E3F6CF8091A401811104C01A
:1010A00089E20E948D13F0CF85E3FBCF81E0EFCF83
:1010B0001092B90088E48093B8000895EF92FF92EF
:1010C0000F931F93CF93DF93182FEB011092BC0067
:1010D00084EA8093BC000E9442167C018091BC008F
:1010E00087FF27C08091B900887F883029F08091E0
:1010F000B900887F8031D9F51093BB0084E88093D4
:10110000BC000E9442168C018091BC0087FF24C065
:101110002091B900287F90E080E02831B1F081E093
:1011200090E0203411F490E080E091958195910950
:101130000CC0CF3FDC0791F20E9442168E199F0926
:101140008C179D0758F28EEF9FEFDF91CF911F9183
:101150000F91FF90EF900895CF3FDC07A9F20E9416
:101160004216801B910B8C179D0770F2ECCF8FEF0E
:101170009FEFEBCF0F931F93CF93DF93EB01809300
:10118000BB0084E88093BC000E9442168C018091D1
:10119000BC0087FF11C02091B900287F81E090E05A
:1011A000283211F490E080E0919581959109DF91CA
:1011B000CF911F910F910895CF3FDC0741F30E941B
:1011C0004216801B910B8C179D0708F38EEF9FEF43
:1011D000EECF0F931F93CF93DF93EC0184EC8093BA
:1011E000BC000E9442168C018091BC0087FF08C0A1
:1011F0008091BB0090E0DF91CF911F910F910895F6
:10120000CF3FDC0789F30E944216801B910B8C179D
:101210009D0750F38EEF9FEFEECF0F931F93CF9369
:10122000DF93EC0184E88093BC000E9442168C019D
:101230008091BC0087FF08C08091BB0090E0DF91E7
:10124000CF911F910F910895CF3FDC0789F30E9442
:101250004216801B910B8C179D0750F38EEF9FEF6A
:10126000EECFCF92DF92EF92FF920F931F93CF9327
:10127000DF93F82EE62EEA016901B8010E945E08AC
:1012800097FD15C0B8018E2D0E94BA0897FD0FC0BA
:10129000B8018F2D81600E945E08F12CE12C21E0C5
:1012A000C21AD108EC14FD0400F597FF11C024E91F
:1012B0002093BC001816190614F490E080E0DF912A
:1012C000CF911F910F91FF90EF90DF90CF900895F5
:1012D000C8010E94E90897FD04C0FE01EE0DFF1D44
:1012E00080832FEFE21AF20ADDCF97FDE0CFC8012D
:1012F0000E940D0997FDDBCFCC0DDD1D8883D7CF74
:101300008093BA0085EC8093BC0008951F921FB6AD
:101310001F9211248F939F93EF93FF938091B900B5
:10132000887F8038C1F038F4882309F448C08036BB
:1013300079F081E022C0883A11F0883BD1F7E09142
:10134000A601F0E0E756FD4F80818093BB0031C0DD
:101350001092A501EECF8091A501811122C080914C
:10136000BB008093A6018091A6018E31C0F010923F
:10137000A60180E091E09093A5019091BC00829538
:10138000880F880F807C892B85688093BC00FF9133
:10139000EF919F918F911F901FBE1F90189581E034
:1013A000E9CFE091A601F0E08091BB00E756FD4F48
:1013B00080838091A6018F5F8093A601BACF10929F
:1013C000BC00B7CF9093AC018093AB010895E0913E
:1013D000AB01F091AC01309721F00190F081E02D4C
:1013E000099480E00895E091AB01F091AC01309751
:1013F00099F020912701222359F02091BB0227FF69
:1014000007C0DC012C9111962C93119725E02C93A9
:101410000280F381E02D09940895E091AB01F091F1
:10142000AC01309739F022E0DC012C930480F58187
:10143000E02D099408952091A9013091AA0128175F
:10144000390771F09093AA018093A901E091AB0153
:10145000F091AC01309721F00680F781E02D0994DE
:1014600008952091A7013091A8012817390771F03C
:101470009093A8018093A701E091AB01F091AC019A
:10148000309721F00084F185E02D0994089585B707
:10149000806885BF85B7806885BF089508950895E1
:1014A0000C944E0A08950C94520A0E94470A0E9416
:1014B0004F0A0C94500A0C94EA05089508950E946E
:1014C00039160E9473040E94E8160C94530ABF92C6
:1014D000CF92DF92EF92FF920F931F93CF93DF9300
:1014E000CDB7DEB72A970FB6F894DEBF0FBECDBFDB
:1014F0000E945D0A0E945E0A0E941F050E945B0A0C
:10150000882309F45EC08EEAC82E81E0D82E10E050
:1015100000E0B02E802F0E945004E82EF601F190DA
:101520006F01F81609F447C08091500281FD0E94B6
:1015300056049F2D9E2580E0FF24F394292F2F2110
:10154000B1F18E83BF82EF2081E009F480E08887CB
:101550000E9442168160782F9A8789874E815F8129
:1015600068858A850E94020BF801E255FE4F808152
:10157000F826F0820E9496190E94E7099091AD0129
:10158000891781F10E94E7098093AD012A960FB671
:10159000F894DEBF0FBECDBFDF91CF911F910F91A9
:1015A000FF90EF90DF90CF90BF900C9459028F5F27
:1015B000FF0C883019F60F5F1F4F0A30110509F034
:1015C000A8CF8FEF89838A831B820E944216816095
:1015D000782F9D838C8349815A816B818D810E94F4
:1015E000020BC8CF2A960FB6F894DEBF0FBECDBF50
:1015F000DF91CF911F910F91FF90EF90DF90CF90EF
:10160000BF900895CF93DF93CDB7DEB72B970FB67A
:10161000F894DEBF0FBECDBF4F83588769877A87A6
:101620008B871E821D8285E0FE013796DE011196B2
:1016300001900D928A95E1F749815A816B817C81F5
:101640008D819E812B960FB6F894DEBF0FBECDBF65
:10165000DF91CF910C941911FC01808191810C9440
:101660005813CF93C82F882309F490C08238C1F44F
:101670000E94E70981FD8AC089E30E9486130E94C7
:10168000EA132FEF81EE94E0215080409040E1F783
:1016900000C0000089E30E948D13CF910C94EA13DF
:1016A0008338A1F40E94E70980FD70C083E50E94A1
:1016B00086130E94EA132FEF81EE94E021508040C0
:1016C0009040E1F700C0000083E5E5CF8438A1F445
:1016D0000E94E70982FD5AC087E40E9486130E9497
:1016E000EA132FEF81EE94E0215080409040E1F723
:1016F00000C0000087E4CFCF8CEF8C0F813AB8F4A4
:101700008C2F0E94FD1B811141C06C2F8091130111
:10171000909114010E941615882329F08C2F0E94A5
:101720008D130E94EA138C2F0E948613B6CF80E29D
:101730008C0F883048F4C77081E001C0880FCA95CB
:10174000EAF70E94AE13A9CFEBE5EC0FE33040F4CB
:10175000F0E0E157FE4F808190E0CF910C941B0A9E
:10176000E8E5EC0FE73150F4F0E0EE0FFF1FEF5922
:10177000FE4F80819181CF910C94310AC03F30F0AF
:101780008C2F0E949018CF910C947B19CF910895C3
:10179000882309F452C0823871F40E94E70981FF5E
:1017A0004CC089E30E9486130E94EA1389E30E94D9
:1017B0008D130C94EA13833859F40E94E70980FFD3
:1017C0003CC083E50E9486130E94EA1383E5EFCFB5
:1017D000843859F40E94E70982FF2FC087E40E94F1
:1017E00086130E94EA1387E4E2CF9CEF980F913AA8
:1017F000F0F290E2980F983050F4877091E001C0B9
:10180000990F8A95EAF7892F0E94B413D2CF9BE5EE
:10181000980F933020F490E080E00C941B0A98E538
:10182000980F973120F490E080E00C94310A803FCB
:1018300020F00E94F8180C947B190895CF93C82FBC
:101840000E94310BC93349F42FEF87EE93E021500A
:1018500080409040E1F700C000008C2FCF910C94A5
:10186000C80B882321F00E94AE130C94EA1308954C
:10187000882321F00E94B4130C94EA130895BF92B8
:10188000CF92DF92EF92FF920F931F93CF93DF934C
:101890006C01D62FC72FFC01058102950F701281B4
:1018A00011110E94CB130E94A413E82E882391F0FB
:1018B0001123E9F08C2F807F803421F080E28D0F9E
:1018C0008830A8F082E00E9435140E94A41391E0B1
:1018D000E82EE926BC2EB2949FE0B922FBE0FB156E
:1018E000A8F1EB2DF0E0EF54FC4D0C945323E12CC8
:1018F000F1CF0C2F0F70C07F11F00295007F1123E4
:10190000A9F0002359F080E28D0F883010F0D1113A
:1019100009C0802F0E94AE130E94EA138D2F0E94EF
:10192000310B14C0802F0E94BE13F6CF8D2F0E9462
:10193000C80B002359F080E28D0F883010F0D111D0
:101940002CC0802F0E94B4130E94EA132B2D285024
:10195000330B2430310520F40E94E7090E9459021C
:10196000EE2009F48EC10E94A01380FD8AC1F60109
:1019700012820E949A130E942512C6010E94620ED2
:101980000E949A13DF91CF911F910F91FF90EF90DA
:10199000DF90CF90BF900C944612802F0E94C4130A
:1019A000D3CF2C2F2F70F22EC07FC03219F0F294BB
:1019B00080EFF822DD2369F0D13049F1112391F154
:1019C000002351F1F601858180FFA8CF8F708583B8
:1019D00023C0112381F0011106C00E94D1138F2969
:1019E0000E94310CB3CF0130C1F70E94D1138F296F
:1019F0000E94D713ABCF011106C00E94E0138F2DB8
:101A00000E94380CA3CF013009F4A0CFF6CF1123E8
:101A100029F0063008F09ACF8F2DE2CF053008F07C
:101A200095CFEDCF002359F3D93349F4FFEF27EEDB
:101A300033E0F15020403040E1F700C000008D2F2E
:101A40000E94C80B83CF8C2F86958695837069F092
:101A5000813009F07BCF8D2F9C2F9370111102C024
:101A600090E080E00E94310A71CF8D2F9C2F9370FF
:101A7000111102C090E080E00E941B0A67CF8D2FF9
:101A8000112329F00E9490180E947B195FCF0E94B9
:101A9000F818FACF8C2F837009F041C0111156CF7E
:101AA0004D2F429546954770440F440F0D2F0F70F0
:101AB00010E030E020E0042E04C0000F111F221FB0
:101AC000331F0A94D2F760E070E0CB01D4FF0FC05F
:101AD0006FE070E080E090E004C0660F771F881F21
:101AE000991F4A95D2F76095709580959095C69507
:101AF000C695C370602B712B822B932BC23049F09B
:101B000058F4C13019F00E94D71120CF0E94C5119E
:101B10001DCF0E94E9111ACF0E94C31117CF8695DD
:101B2000112311F08C2F8170882309F40FCF4D2FD2
:101B3000429546954770440F440F0D2F0F7010E0EB
:101B400030E020E0042E04C0000F111F221F331FBD
:101B50000A94D2F760E070E0CB01D4FF0FC06FE0D1
:101B600070E080E090E004C0660F771F881F991F27
:101B70004A95D2F76095709580959095C695C695D3
:101B8000C370602B712B822B932BC23049F058F419
:101B9000C13019F00E949C12D9CE0E948A12D6CE72
:101BA0000E94AE12D3CE0E94FF11D0CECF7011236F
:101BB00029F08C2F0E9425128D2F12CF8D2F0E947D
:101BC000380C8C2F0E944612C1CED23F89F160F4AE
:101BD000D03FC9F0D13F29F1112309F442C00111CE
:101BE0009DCE8C2F8F7121C0D33F39F1D43FA1F707
:101BF000112369F1CF718C2F0E94251263E08C2F85
:101C00000E942014A3CE112341F0053008F09ECE8F
:101C10008C2F8F710E94691299CE063008F096CEF3
:101C2000F7CF8C2F8F71112369F20E9425128ECE6F
:101C30008C2F8F711123C9F3C5CF112329F08C2F5D
:101C40008F710E94101282CE0E940B127FCE81E013
:101C50000E943514023008F479CE82E00E943514D7
:101C600075CE002359F0D93309F0E9CE8FEF97EE06
:101C7000E3E081509040E040E1F7DFCE8C2F8F71A0
:101C8000A1CFDF91CF911F910F91FF90EF90DF9047
:101C9000CF90BF9008950F931F93CF93DF93EC01E4
:101CA000688179818A810E9462138C010E94C0122E
:101CB0000E94C211B801CE01DF91CF911F910F9107
:101CC0000C943F0CCF93DF93EC018B819C81892B8B
:101CD00029F08881998189238F3F59F4DF91CF9131
:101CE0000895CE010E944B0ECE01DF91CF910C944E
:101CF000F101CE010E9416028111F3CF0E94A413BC
:101D0000882361F38A81882349F382E0DF91CF91B0
:101D10000C9435140E94CB130E94CE130E94EA1338
:101D20000E94A21A0E947B1990E080E00E941B0A88
:101D300090E080E00C94310A0E9494130C948A0E77
:101D40000E94BB130C949C0EE92FE295EF70E250B9
:101D5000EE3070F4F0E0E354FC4D0C945323803FDC
:101D600019F020F4883E20F481E00895843FE1F3E7
:101D700080E00895883EC0F3813FD1F7F5CF93FB13
:101D8000882780F908950E9458130C94A40ECF93CD
:101D9000DF9300D000D00F92CDB7DEB70F900F9039
:101DA0000F900F900F90DF91CF910895CF93DF9315
:101DB00000D000D000D0CDB7DEB726960FB6F8948D
:101DC000DEBF0FBECDBFDF91CF9108951F93CF939C
:101DD000DF93C091B90116E08091BA018C1304C061
:101DE000DF91CF911F910895D0E01C9FF0011D9FBE
:101DF000F00D1124E554FE4F4081518162817381C1
:101E0000848195810E94D60E2196C770E5CF4091BE
:101E1000EB015091EC016091ED017091EE01809128
:101E2000EF019091F0010C94D60E1F93CF93DF93A6
:101E30008091F001807FA9F48091ED01882389F0E1
:101E40008091B901C091BA016091EB017091EC01F0
:101E5000A091EE01B091EF01D62FD72316E0C81361
:101E600004C0DF91CF911F91089590E0109711F079
:101E7000DF3F19F401968770F2CF189F9001199FE8
:101E8000300D1124F901E554FE4F41814713F2CF83
:101E900040814613EFCF42814111ECCF4381548101
:101EA0004A1B5B0B483C510528F78091F0018F706D
:101EB00080618093F001F901E054FE4F80818F70C2
:101EC000806180838BEE91E00E94620EDF91CF9162
:101ED0001F910C94E60EAF92BF92CF92DF92EF92D9
:101EE000FF920F931F93CF93DF93CDB7DEB7619728
:101EF0000FB6F894DEBF0FBECDBF8C0185E0F801B0
:101F0000DE011D9601900D928A95E1F7F80140815E
:101F10005181E2808BEEC82E81E0D82E6091EE01D7
:101F20007091EF016115710509F461C19091EB01A8
:101F30002091EC01892F82238F3F09F458C1A3809F
:101F4000B480F090ED01F501E61BF70BFF2009F4DA
:101F5000FCC08091F001382F307FE83CF10508F09B
:101F6000B2C0311179C0FE2C251323C0941321C0B7
:101F7000E1101FC08F7080618093F0010E94070FF5
:101F8000C6010E94620E8091F001F80185838F2DB9
:101F900061960FB6F894DEBF0FBECDBFDF91CF9133
:101FA0001F910F91FF90EF90DF90CF90BF90AF9077
:101FB0000895AB2829F0842F85238F3F09F033C182
:101FC00080E0F82FF170DF2E80FF3CC08091B901D6
:101FD0002091BA0136E0821315C04D875E878D854A
:101FE0009E850E945813292F22952F702230F0F0E1
:101FF000243018F59F70F1F0F8019581907FD1F4AD
:10200000D12C1EC090E0389FF001399FF00D1124B3
:10201000E554FE4F6181651306C06081641303C0FF
:1020200062816E110FC001968770D5CF9F7011F03D
:10203000882331F3805E883018F3C8010E94620E55
:10204000FD2CA5CFEE2009F4A2CF8091F001816094
:102050008093F001F12C9BCF251306C0941304C08C
:10206000F801EE2009F48DC04D875E878D859E8531
:102070000E94C30E882319F1EE2009F18091F0012E
:10208000803270F02091EB013091EC0138872F8382
:102090001986BB86AA868C87CE0107960E94620E9F
:1020A00086E0F801ABEEB1E001900D928A95E1F780
:1020B0000E94150F0E94070FFF24F39468CFC801F8
:1020C0000E94620EF9CF311113C07A2DB98AA88A05
:1020D0006E2D89890E94C70E8BEE91E00E94620EE0
:1020E00086E0F60111928A95E9F70E94070FB2CFB8
:1020F00025130FC094130DC0E1100BC0F8018583A8
:10210000C8010E94620E86E0F60111928A95E9F7F5
:102110003ECF4D875E878D859E850E94C30E8823A6
:1021200071F2EE2061F28091F001803208F4B8CFB4
:102130002091EB013091EC013A8329831B82BD820F
:10214000AC828E83CE010196A9CFE83CF10508F060
:1021500041C0FE2CEE2009F4B2CF25132AC09413FF
:1021600028C08091F00180FD1BC0982F907FC1F0A6
:10217000F8018583903F31F0982F907F905F8F70AA
:10218000892B8583C8010E94620E86E0F801ABEEC0
:10219000B1E001900D928A95E1F70E94070FF7CE0A
:1021A00086E0F801ABEEB1E001900D928A95E1F77F
:1021B000EECE4D875E878D859E850E94C30E811170
:1021C0006FCF8091F00181608093F001C8010E947F
:1021D000620EDDCE7A2DB98AA88A6E2D89890E9479
:1021E000C70E86E0F60111928A95E9F7D6CFEE2068
:1021F00009F465CF4D875E878D859E850E94C30E4D
:10220000F82E882309F45BCF86E0F801ABEEB1E04D
:1022100001900D928A95E1F78BEE91E00E942C0BD4
:102220000E94150FBACF81E08E25CBCE88EC90E0CE
:1022300008951F93CF93DF93CDB7DEB72C970FB6DA
:10224000F894DEBF0FBECDBF4F83588769877A876A
:102250008B879C87CE0107960E946B0F882369F0BD
:102260008A859B85892B39F04F815885842F85235A
:102270008F3F09F071C016E05FC086E0FE0137961F
:10228000DE01119601900D928A95E1F78A859B8572
:10229000892B89F38F81988589238F3F61F3209162
:1022A000BA0130E0C9010196877099274091B901C0
:1022B0004817190671F40E94A00E1092BA011092EC
:1022C000B90186E0EBEEF1E0DF011D928A95E9F7B6
:1022D000D2CF96E0929FD001939FB00D1124A554C8
:1022E000BE4FFE01319601900D929A95E1F78093D1
:1022F000BA010E94E60EBFCF819FC0011124855410
:102300009E4F0E946B0F8823E9F0E091B9011E9F58
:10231000F0011124E554FE4F4081518162817381A7
:10232000848195810E94D60E8091B90190E001963A
:10233000877099278093B9018091B9019091BA0172
:102340008913DACF2C960FB6F894DEBF0FBECDBF3F
:10235000DF91CF911F91089569857A858B859C8542
:102360000E94D60E88CF08950C94B3110E94B41128
:1023700060932702709328028093290290932A0287
:102380000C948A0E08950C94B6110F931F9300912C
:102390002702109128022091290230912A02602BF5
:1023A000712B822B932B1F910F910C94B6110F93CD
:1023B0001F93009127021091280220912902309149
:1023C0002A0260237123822393231F910F910C947F
:1023D000B6110F931F9300912702109128022091AC
:1023E000290230912A0260277127822793271F91A3
:1023F0000F910C94B6110C94B3110C94FB110E9424
:10240000FD11609323027093240280932502909320
:1024100026020C948A0E60E070E0CB010C94FF1150
:102420000F931F9341E050E060E070E08A019B0150
:1024300004C0000F111F221F331F8A95D2F7C90154
:10244000B8011F910F910C94FF110F931F9341E05E
:1024500050E060E070E004C0440F551F661F771F16
:102460008A95D2F78091230290912402A0912502AF
:10247000B09126028A019B01082B192B2A2B3B2B9A
:10248000C901B8011F910F910C94FF110F931F9375
:1024900041E050E060E070E004C0440F551F661F4B
:1024A000771F8A95D2F7CB01BA0160957095809518
:1024B00090950091230210912402209125023091E1
:1024C000260260237123822393231F910F910C9482
:1024D000FF110F931F9341E050E060E070E004C0F3
:1024E000440F551F661F771F8A95D2F780912302EC
:1024F00090912402A0912502B09126028A019B01AD
:10250000082719272A273B27C901B8011F910F91D6
:102510000C94FF110F931F9300912302109124023A
:102520002091250230912602602B712B822B932B58
:102530001F910F910C94FF110F931F930091230291
:1025400010912402209125023091260260237123EC
:10255000822393231F910F910C94FF110F931F93CC
:10256000009123021091240220912502309126022D
:1025700060277127822793271F910F910C94FF11D9
:102580000895990F990F990F890F982F977041E02F
:1025900001C0440F9A95EAF786958695869595E051
:1025A000899FF0011124EF50FE4F30E020E070E0F1
:1025B0005191DF011197CB01022E02C096958795AC
:1025C0000A94E2F7817081958527842385278C936F
:1025D0002F5F3F4F2530310559F70895990F990F17
:1025E000990F890F982F977086958695869525E087
:1025F000829FF0011124EF50FE4F50E040E080E058
:10260000219130E0092E02C0369527950A94E2F711
:1026100021703327042E01C0220F0A94EAF7822B7F
:102620004F5F5F4F4530510559F70895BF92CF92E4
:10263000DF92EF92FF920F931F93CF93DF938C0162
:10264000C0902302D0902402E0902502F090260250
:102650008091270290912802A0912902B0912A022C
:10266000C82AD92AEA2AFB2ACFE1D0E0BC2ED7011A
:10267000C6010C2E04C0B695A795979587950A9428
:10268000D2F780FD0EC0219788F7B12C8B2DDF91FA
:10269000CF911F910F91FF90EF90DF90CF90BF905F
:1026A0000895B8018C2F0E947602019761F3EECF56
:1026B000CF93DF93EC010E941613BE01DF91CF91FF
:1026C0000C9476021F93CF93DF93EB019091B801A6
:1026D000992331F0CB01DF91CF911F910C945813C6
:1026E000882379F0CB010E941613182F682FCE0192
:1026F0000E94C112BE01812FDF91CF911F910C94D6
:102700007602CB010E94EE12182FF4CF682F809131
:102710001301909114010C949615682F8091130168
:10272000909114010C94A1158091130190911401C2
:102730000C94AC1580912B0285958595859508950F
:1027400080912B028770089590912B02977081E001
:1027500009F480E0089580914F02089590914F020E
:10276000892B80934F020895809590914F02982372
:1027700090934F02089510924F02089590914E0247
:10278000892B80934E020895809590914E02982354
:1027900090934E02089510924E02089510924D02A9
:1027A000089580912C02089508950C94D41390916B
:1027B0002C02981721F080932C020C94D5130895C5
:1027C00080912C02882329F010922C0280E00C9436
:1027D000D5130895E0911301F091140180914F02F7
:1027E0008083E0911301F0911401808190914E0259
:1027F000892B8083E0911301F091140180819091E5
:102800004D02892B808390912C02992381F0E091D5
:102810001301F09114018081892B80838091130131
:10282000909114010E94021581110E94E013809181
:102830001301909114010C94F30908950C941D1444
:1028400098E0899F90011124622B60932B020E94D3
:10285000251280912B028595859585950C941E14E3
:1028600010922B0280E00C941E1490912B02809504
:10287000892380932B02282F277071F4282F082E8C
:10288000000C330B9217130639F0859585958595C5
:102890000E9446120C943014089590E080E00E944B
:1028A000752321E08C3E9E4F09F020E0822F089591
:1028B00082E090E00C946D23682F82E090E00C940D
:1028C0007B2383E090E00C946D23682F83E090E0FD
:1028D0000C947B23CF9384E090E00E946D23C82F5B
:1028E00081E290E00E946D23982F8C2FCF91089564
:1028F000CF93C92F682F84E090E00E947B236C2F38
:1029000081E290E0CF910C947B23AB01BC018FE07E
:1029100090E00C948D23AB01BC0183E190E00C941A
:102920008D2360E070E0CB010C948B1460E070E0CC
:10293000CB010E9485140C9491146CEE7EEF90E014
:1029400080E00E94992360E082E090E00E947B2377
:1029500060E083E090E00E947B23109227021092B7
:1029600028021092290210922A0260E084E090E08E
:102970000E947B2360E081E290E00E947B2360E084
:1029800085E090E00E947B2360E086E090E00E947A
:102990007B236FEF87E090E00E947B2340E050E0D4
:1029A000BA0188E090E00E948D2360E08DE090E025
:1029B0000E947B2340E050E0BA0188E190E00E9451
:1029C0008D2360E087E190E00E947B2340E050E0AF
:1029D000BA018CE190E00E948D2360E080E290E0FB
:1029E0000E947B2340E050E0BA0188E190E00E9421
:1029F0008D230C9496140C949D14682F8EE090E017
:102A00000C947B23FC01329680912701882321F0CE
:102A10008091BB029EE187FF96E080E0915008F430
:102A2000089521912223D1F38F5FF8CF662301F11E
:102A3000209127012223F1F02091BB0227FF1AC029
:102A4000462F4695469546954E3190F4677021E0A5
:102A500030E002C0220F331F6A95E2F7840F911D08
:102A6000FC01828190E02823392381E0232B69F443
:102A700080E00895FC01329608962191261721F0F6
:102A8000E817F907D1F7F4CF81E008959C01FC0124
:102A900032969FEF80E04191461751F09F3F19F425
:102AA000411101C0982F8F5F8630A9F79F3F09F42D
:102AB0000895290F311D97FD3A95F9016283089514
:102AC000FC01329608962191261303C0DF0111976D
:102AD0001C92E817F907B9F70895E62FE695E695F1
:102AE000E695EE3168F4E80FF92FF11D677021E0EB
:102AF00030E001C0220F6A95EAF78281822B82833F
:102B00000895E62FE695E695E695EE3170F4E80F28
:102B1000F92FF11D677021E030E001C0220F6A95A6
:102B2000EAF72095828128232283089520912701A6
:102B3000222329F02091BB0227FD0C946D150C94E3
:102B4000461520912701222329F02091BB0227FD61
:102B50000C9481150C946015FC013296809127012C
:102B6000882351F08091BB0287FF06C08EE1DF0110
:102B70001D928A95E9F7089586E0F9CF08950895A2
:102B80000C94BF150E94C0158091C102843049F198
:102B90001092510288E190E020E40FB6F894A895D5
:102BA000809360000FBE2093600080E00E94590275
:102BB0000E94C01583B7817F846083BF83B7816023
:102BC00083BF7894889583B78E7F83BF0FB6F894C0
:102BD000A8958091600088618093600010926000E9
:102BE0000FBE08950895CF930E94BE150E941F0541
:102BF0000E94F215C0E08C2F0E945004811105C084
:102C0000CF5FCA30C1F7CF91089581E0FCCF08951E
:102C10000C9407160E94A00E0E94E7090E94590218
:102C20000C9408161F921FB61F9211248F939F9326
:102C3000AF93BF9380915102811113C08091B7026D
:102C40009091B802A091B902B091BA024196A11D2B
:102C5000B11D8093B7029093B802A093B902B093CC
:102C6000BA02BF91AF919F918F911F901FBE1F908D
:102C7000189582E084BD93E095BD9AEF97BD80934F
:102C80006E0008952FB7F8948091B7029091B80222
:102C9000A091B902B091BA022FBF08959C014FB71D
:102CA000F8948091B7029091B802A091B902B091C6
:102CB000BA024FBF821B930B089578941F921FB6E0
:102CC0001F9211248F939F93AF93BF938091B7026C
:102CD0009091B802A091B902B091BA020196A11DDB
:102CE000B11D8093B7029093B802A093B902B0933C
:102CF000BA02BF91AF919F918F911F901FBE1F90FD
:102D0000189581E08093E00080E28093D8001092D3
:102D1000C9008FE19EE40197F1F700C0000087E051
:102D200090EBDC018093CA029093CB02A093CC027B
:102D3000B093CD0288E19CE00FB6F894A8958093FB
:102D400060000FBE90936000FFCFCF92DF92EF92B2
:102D5000FF920F931F93CF93C0E0E82EF12C8C2F9E
:102D60000E94500410E000E0C82ED12CC601002EB5
:102D700002C0959587950A94E2F780FD11C00F5F18
:102D80001F4F0830110591F7CF5FCA3041F780E03F
:102D9000CF911F910F91FF90EF90DF90CF9008950A
:102DA000602F7C2F80E00E946102E816F90639F757
:102DB00081E0EECFCF93C82F8CE20E94A516882326
:102DC00021F08C2FCF910C94A51680E0CF9108951F
:102DD000CF930E944D14811102C00E94FB14C5E6DE
:102DE00008C00E941F058FE39CE90197F1F700C01E
:102DF0000000C150B1F789E20E94DA1681110BC1BF
:102E00008AE20E94DA1681110E94FB1485E00E947A
:102E1000DA1681110E9481160E9458148093500284
:102E200087E00E94DA16882371F08BE10E94DA169F
:102E3000882309F4CDC090915002892F8D7F91FF96
:102E4000826080935002809150020E945C140E9424
:102E50006A149093BC028093BB0280EE0E94DA1643
:102E6000882341F09091BB02892F8E7F90FF816073
:102E70008093BB0289E30E94DA16882341F0909187
:102E8000BB02892F8D7F91FF82608093BB0282EE0F
:102E90000E94DA16882341F09091BB02892F8B7F24
:102EA00092FF84608093BB0286EE0E94DA1688232C
:102EB00041F09091BB02892F877F93FF88608093B8
:102EC000BB0283EE0E94DA16882341F09091BB0288
:102ED000892F8F7E94FF80618093BB0285E30E94DF
:102EE000DA16882341F09091BB02892F8F7D95FFE0
:102EF00080628093BB0281E30E94DA16882341F04E
:102F00009091BB02892F8F7B96FF80648093BB02D8
:102F100081E10E94DA16882341F09091BB02892F4B
:102F200097FB87F980588093BB028091BB029091F8
:102F3000BC020E94781487E20E94DA16C82F8EE144
:102F40000E94DA168111C2608FE10E94DA168111A7
:102F5000C46080E20E94DA168111C86081E20E949A
:102F6000DA168111C06182E20E94DA168111C06214
:102F700083E20E94DA168111C06484E20E94DA16AC
:102F8000882309F442C0C0688C2F0E9465146C2FFE
:102F900070E090E080E00E94C31160912302709184
:102FA000240280912502909126020E94FD118FE05B
:102FB0000E94DA16882319F081E00E94FD1485E151
:102FC0000E94DA16882339F180E0CF910C94FD1429
:102FD0008EE00E94DA16882339F090915002892FF2
:102FE0008B7F92FF84602DCF80E10E94DA16909152
:102FF0005002882329F0892F877F93FF886021CF93
:10300000892F8E7F90FF81601CCFC111BDCF0E94A0
:103010006114682FBDCFCF9108958091580280FF31
:1030200012C060911A0185E0689FB0011124759566
:1030300067957595679560387105A8F561157105F7
:10304000A1F1862F089581FF09C060911A0185E0E2
:10305000689FB001112475956795EDCF60911A01B5
:1030600082FD0AC0809157028823D1F09091190106
:1030700060911A01891728F085E0689FB00111243A
:10308000DACF869FB001112485E0869F9001879F4B
:10309000300D1124692F70E0C9010E943F23CBCF6E
:1030A00065E070E0CECF8FE7089581E008958091CC
:1030B000580280FF0CC06091160170E0759567950D
:1030C000759567956115710549F1862F089581FF02
:1030D00006C06091160170E075956795F3CF609119
:1030E000160182FD0BC0909156029923A1F06091C8
:1030F000150180911601961738F0682F70E060383E
:10310000710500F38FE70895899FC001112470E0D5
:103110000E943F23F4CF61E070E0D7CF81E00895B3
:10312000803F31F40E940D18819580935C020895D0
:10313000813F19F40E940D18F8CF823F31F40E94AC
:103140000D18819580935B020895833F19F40E94C6
:103150000D18F8CF893F29F40E94571880935D021B
:1031600008958A3F21F40E9457188195F7CF8B3F2D
:1031700031F40E945718819580935E0208958C3F28
:1031800019F40E945718F8CF843F31F480915A0205
:10319000816080935A020895853F21F480915A02FC
:1031A0008260F7CF863F21F480915A028460F1CF8C
:1031B000873F21F480915A028860EBCF883F21F449
:1031C00080915A028061E5CF8D3F31F480915802A1
:1031D00081608093580208958E3F21F480915802B7
:1031E0008260F7CF8F3FB9F7809158028460F1CFAA
:1031F00090915B02803F59F480915C0287FF0DC083
:1032000010925C0291110BC01092570208C0813FCE
:1032100081F480915C0218169CF3992381F08091CF
:103220005D0290915E02892B09F064C010925602F3
:103230000895823F49F497FFF0CF10925B0280918E
:103240005C028111ECCFE0CF833F19F41916ACF387
:10325000E4CF20915D02893F29F41216F4F6109212
:103260005D02DBCF8A3F19F427FFD7CFF8CF20913B
:103270005E028B3F29F427FFD0CF10925E02CDCFA4
:103280008C3F19F41216CCF3C8CF843F31F48091EF
:103290005A028E7F80935A02C0CF853F21F48091DD
:1032A0005A028D7FF7CF863F21F480915A028B7F9F
:1032B000F1CF873F21F480915A02877FEBCF883F7F
:1032C00021F480915A028F7EE5CF8D3F31F48091B9
:1032D00058028E7F80935802A0CF8E3F21F48091B8
:1032E00058028D7FF7CF8F3F09F097CF809158021A
:1032F0008B7FF0CF08950E9442169C0190915B0253
:1033000080915C02982B21F0309355022093540257
:1033100090915D0280915E02982B21F030935302D0
:103320002093520289E592E00C940D0AEF92FF92ED
:103330000F931F93CF93DF9300D000D000D0CDB771
:10334000DEB786E0E9E5F2E0DE01119601900D922C
:103350008A95E1F7E0905B02F0905C0200915D02DB
:1033600010915E0210925B0210925C0210925D025C
:1033700010925E028E2D8F2991F0809154029091CF
:1033800055020E944E16AC0190915702992309F400
:103390003FC080911B018417150608F447C0802F99
:1033A000812B91F080915202909153020E944E160F
:1033B000AC0190915602992309F477C080911701CE
:1033C0008417150608F47FC080915B0290915C021F
:1033D000892B90915D02892B90915E02892B11F0CF
:1033E0000E947B1986E0FE013196A9E5B2E00190CA
:1033F0000D928A95E1F726960FB6F894DEBF0FBEC0
:10340000CDBFDF91CF911F910F91FF90EF90089565
:1034100020911C018AE0289F900111242417350770
:1034200008F0BDCF9F5F9093570202C09F3FD1F736
:10343000EE2059F00E940D189FEF1E140CF491E03D
:10344000899F802D112480935B02FF2059F00E94F8
:103450000D189FEF1F140CF491E0899F802D11240B
:1034600080935C0230915B02332309F498CF209162
:103470005C02222309F493CF45EB3403C0011124ED
:10348000992359F090935B0245EB2403900111249A
:10349000332339F030935C0282CF81E080935B026A
:1034A000F3CF81E080935C027ACF209118018AE00B
:1034B000289F900111242417350708F085CF9F5FBE
:1034C0009093560202C09F3FD1F7002359F00E940B
:1034D00057189FEF10160CF491E0899F802D11244E
:1034E00080935D02112359F00E9457189FEF111627
:1034F0000CF491E0899F802D112480935E0230911D
:103500005D02332309F460CF20915E02222309F487
:103510005BCF45EB3403C0011124992359F09093FC
:103520005D0245EB240390011124332339F03093DD
:103530005E024ACF81E080935D02F3CF81E0809309
:103540005E0242CF86E0E9E5F2E0DF011D928A9556
:10355000E9F71092570210925602109258020895FD
:10356000833081F128F4813059F08230D1F0089510
:10357000853009F449C0B8F1863009F456C0089581
:1035800080911C01482F460F5527551F4F3F51056D
:1035900024F4680F60931C0108958FEF80931C0141
:1035A000089580911B01482F460F5527551F4F3F07
:1035B000510524F4680F60931B0108958FEF8093E9
:1035C0001B01089580911A01482F460F5527551F5A
:1035D0004F3F510524F4680F60931A0108958FEF4F
:1035E00080931A01089580911901482F460F55279D
:1035F000551F4F3F510524F4680F6093190108953A
:103600008FEF80931901089580911601482F460F7E
:103610005527551F4F3F510524F4680F609316013D
:1036200008958FEF80931601089580911501482F1A
:10363000460F5527551F4F3F510524F4680F6093DF
:10364000150108958FEF809315010895833011F1CE
:1036500028F4813049F0823091F00895853081F16D
:1036600020F18630C1F1089580911C01681720F483
:10367000861B80931C01089510921C01089580916F
:103680001B01681720F4861B80931B01089510927C
:103690001B01089580911A01681720F4861B8093FE
:1036A0001A01089510921A0108958091190168175E
:1036B00020F4861B80931901089510921901089532
:1036C00080911601681720F4861B809316010895D7
:1036D00010921601089580911501681720F4861B39
:1036E0008093150108951092150108950F931F936B
:1036F00041E050E060E070E08A019B0104C0000FEF
:10370000111F221F331F8A95D2F7C901B8010E94E9
:10371000C3111F910F910C94A00EEBEFE80FEF3344
:1037200008F05AC0F0E0E553FC4D0C9453230E947E
:10373000FB1481E0089580915002807F80935002B5
:1037400081E08093600208950E940702F2CF909179
:103750005002892F8E7F90FF81608093500280FD00
:10376000E8CF817F80935002E4CF90915002892F5F
:103770008D7F91FF82608093500281FFDACF80912C
:1037800050028160EFCF90915002892F8B7F92FF82
:1037900084608093500282FDF2CFCBCF9091500293
:1037A000892F877F93FF88608093500283FDE7CF46
:1037B000C0CF0E94A00E9091BB02892F97FB87F982
:1037C00080588093BB02B5CF80E00E94761BB1CFBA
:1037D0008953FBCF8D51F9CF80E0089580E00895A3
:1037E0000C94EE1B8E518A3030F4E82FF0E0EE5648
:1037F000FE4F8081089580E00895CF93C82F809177
:1038000060028130B9F0882331F08230A1F110924A
:10381000600280E00DC00E94AB138232D1F78C2F82
:103820000E94EE1B81111BC08C2F0E948D1B81708A
:10383000CF9108950E94AB13823289F38C2F0E949E
:10384000F01B81110AC0C43199F060F4CB3029F02B
:10385000C03169F782E08093600281E0E8CF81E0C7
:1038600090E0E5CFC93221F0C833B9F380E0DFCF73
:1038700010926002FBCFC93219F188F4C43101F112
:1038800020F4C73081F181E0D3CF82EE8C0F8630F7
:10389000D0F78C2F0E94F21B80935F02F4CFCE34BE
:1038A00001F140F46AE0CB3471F780915F020E942D
:1038B000B01AE9CFC13579F061E0C235B1F3E3CF99
:1038C00080915F02882319F010925F02DCCF81E0C3
:1038D00080936002ADCF61E080915F020E94261B61
:1038E000D2CF6AE0F9CF8EE180931C0182E380930E
:1038F0001B018AE080931A0184E18093190188E01A
:103900008093160188E280931501BDCF80918102DA
:103910000895CF93DF9300D00F92CDB7DEB790918B
:10392000C102943019F589837B836A8382E0809396
:10393000E9008FEF9091E800815095FD06C095ED6C
:103940009A95F1F700008111F5CF8091E80085FF8D
:103950000DC050E040E063E070E0CE0101960E94AF
:10396000AE1E8091E8008E778093E8000F900F9054
:103970000F90DF91CF910895BC0184E00C94891CD5
:10398000BC0183E00C94891C9C0182E08093E900D7
:103990009FEF8091E800915085FD06C085ED8A95E6
:1039A000F1F700009111F5CF8091E80085FF0CC080
:1039B00050E040E066E070E0C9010E94AE1E8091D8
:1039C000E8008E778093E8000895CF93DF93EC01B1
:1039D000809127018823B1F18091BB0287FF32C01B
:1039E00060E282E08093E9008FEF9091E8008150DF
:1039F00095FD06C095ED9A95F1F700008111F5CF80
:103A00008091E80085FF1BC08091270170E050E0A5
:103A100040E0811104C050E040E068E070E0CE0179
:103A20000E94AE1E8091E8008E778093E80080E2CD
:103A3000FE01A1E6B2E001900D928A95E1F7DF91D7
:103A4000CF91089568E081E0CDCF8091C0028111CF
:103A500009C00E943E200E949B208091E200846069
:103A60008093E20008951092C00208950895089589
:103A70000C940A1642E061EC81E00E94BA1F42E217
:103A800061EC82E00C94BA1F8091C302833009F488
:103A90005FC030F48130C1F1823009F49BC00895D9
:103AA0008A3009F487C08B3009F46DC0893009F081
:103AB0004EC08091C202813209F049C08091C60295
:103AC0009091C702029708F042C08091E800877F7A
:103AD0008093E8008091E80082FF35C09091F30068
:103AE0008091F200029729F48091F1008B7F813060
:103AF00021F48091F100809381028091E8008B771E
:103B00008093E8000C94EE1F8091C202813AF9F490
:103B10008091E800877F8093E8008091C6029091B1
:103B2000C702892B61F460E281E692E070E00E94B6
:103B3000FD1E8091E8008B778093E800089560E097
:103B400090E080E0F3CF8091C1028111C3CF08954E
:103B50008091C202813AD9F78091C6029091C70242
:103B6000892BA9F78091E800877F8093E8008091F6
:103B7000E80080FFFCCF809127018093F1008091C5
:103B8000E8008E77BDCF8091C202813201F780912B
:103B9000C6029091C702892BD1F68091E800877FF9
:103BA0008093E8000E94EE1F8091C4028093270159
:103BB0000C94A00E8091C202813249F68091E800F7
:103BC000877F8093E8000E94EE1F8091C50280935A
:103BD000820208958091C202813A09F0B8CF8091A3
:103BE000E800877F8093E8008091E80080FFFCCFA9
:103BF00080918202C2CF84B7877F84BF0FB6F894CA
:103C0000A8958091600088618093600010926000A8
:103C10000FBE80E890E00FB6F89480936100909317
:103C200061000FBE0E94550A0E943E200E949B2008
:103C30008091E20084608093E20078940E942423C3
:103C40000E945F0A8DE191E00E94E2098091C10229
:103C5000853039F00E94670A0E945D0A0E945E0A60
:103C6000F5CF0E94C2158091BF02882379F30E948C
:103C7000F315882359F30E94981EE8CF0C94401E38
:103C8000292F33272330310519F168F4213031050C
:103C900009F444C02230310509F445C090E080E0C9
:103CA00030E020E025C02132310549F122323105D2
:103CB000A9F780E490E025E832E061157105C1F0D4
:103CC0008CEB90E029EC31E06130710589F0E6CFB2
:103CD00099278130910581F0009729F00297F1F63C
:103CE000ECE4F1E002C0E8E7F1E0849190E09F01AC
:103CF000FA01318320830895E0E6F1E0F6CF89E010
:103D000090E02EE831E06115710591F389E090E0D3
:103D100027EA31E06130710559F3C0CF82E190E0CC
:103D200027EB31E0E5CF8BE390E02CE731E0E0CF0B
:103D300080E189BD82E189BD09B400FEFDCF80919B
:103D4000D8008F7D8093D8008091E00082608093BE
:103D5000E0008091E00081FDFCCF0895AF92BF921A
:103D6000CF92DF92FF920F931F93CF93DF936C015B
:103D7000EB018A010E940D20F82E811123C001154C
:103D8000110539F0F80180819181C81BD90BC80E4B
:103D9000D91EB12CA12C2097A9F08091E80085FDB7
:103DA00022C08091E8008E778093E800011511050C
:103DB000A1F0F80180819181A80EB91EB182A08284
:103DC00085E0F82E8F2DDF91CF911F910F91FF90FD
:103DD000DF90CF90BF90AF9008950E940D20882370
:103DE000D1F2F82EEFCFF60181916F018093F100AF
:103DF0002197FFEFAF1ABF0ACECFFC018091C80216
:103E00009091C90286179707A0F06115710529F4F2
:103E10009091E8009E779093E80090E0611571051D
:103E200051F4911108C08091E80082FF34C080E015
:103E30000895BC01F2CF8091C1028823C1F1853081
:103E4000C1F18091E80083FD30C08091E80082FDDF
:103E5000EACF8091E80080FFE1CF8091F3002091CC
:103E6000F200382F6115710519F02830310558F02E
:103E700091E02830310509F090E02091E8002E779C
:103E80002093E800CBCF81918093F10061507109BC
:103E90002F5F3F4FE7CF8091C102882341F08530EB
:103EA00041F08091E80083FFBECF81E0089582E079
:103EB000089583E00895FC018091C8029091C902A1
:103EC00086179707A0F06115710529F48091E80025
:103ED0008E778093E80090E06115710551F491119F
:103EE00008C08091E80082FF35C080E00895BC01E1
:103EF000F2CF8091C1028823C9F18530C9F1809148
:103F0000E80083FD31C08091E80082FDEACF809116
:103F1000E80080FFE1CF8091F3002091F200382F7C
:103F20006115710519F02830310558F091E02830FD
:103F3000310509F090E08091E8008E778093E800E9
:103F4000CBCF84918093F1003196615071092F5F3E
:103F50003F4FE6CF8091C102882341F0853041F088
:103F60008091E80083FFBDCF81E0089582E008954D
:103F700083E00895982F973028F08F708093E900A0
:103F800081E008959093E900242F762F50E0981750
:103F900031F07091EC002091ED005091F00021FD86
:103FA00002C09F5FE8CF3091EB003E7F3093EB0083
:103FB0003091ED003D7F3093ED003091EB003160AA
:103FC0003093EB007093EC002093ED005093F000E1
:103FD0002091EE0027FDE5CF80E008958091C20298
:103FE00087FF13C08091E80082FF06C08091E8003F
:103FF0008B778093E80004C08091C1028111F2CFD9
:1040000008958091C1028823D9F38091E80080FF50
:10401000F8CF8091E8008E77ECCF2091E4003091CA
:10402000E50095E6A9012091EC00822F817020FF28
:1040300006C08091E80080FF06C080E008952091CE
:10404000E80022FD1AC08091C102882389F08530E2
:1040500089F08091EB0085FD0FC02091E400309144
:10406000E50042175307F9F29150E1F684E0089514
:1040700082E0089583E0089581E008950E94AC20D5
:104080000E94B420E0EEF0E0808181608083E8ED62
:10409000F0E080818F77808319BCA7EDB0E08C9130
:1040A0008E7F8C9380818F7E80831092C0020895D2
:1040B0000F931F93CF93DF930E94AC200E94B420F4
:1040C000C8EDD0E088818F77888388818068888375
:1040D00088818F7D888319BC1092C1021092BD0225
:1040E0001092BF021092BE0200EE10E0F801808133
:1040F0008B7F808388818160888342E060E080E0FC
:104100000E94BA1FE1EEF0E080818E7F8083E2EEB4
:10411000F0E0808181608083808188608083F80105
:1041200080818E7F8083888180618883DF91CF91B9
:104130001F910F910895E8EDF0E080818F7E8083DC
:10414000E7EDF0E080818160808384E082BF81E0E0
:104150008093C0020C945820E8EDF0E080818E7FBF
:1041600080831092E20008951092DA001092E1002C
:1041700008951F920F920FB60F9211242F933F9321
:104180004F935F936F937F938F939F93AF93BF935F
:10419000EF93FF938091E10082FF0BC08091E200DA
:1041A00082FF07C08091E1008B7F8093E1000E9435
:1041B00023238091DA0080FF19C08091D80080FF0E
:1041C00015C08091DA008E7F8093DA008091D9004B
:1041D00080FF96C080E189BD82E189BD09B400FEFF
:1041E000FDCF81E08093C1020E94251D8091E100F6
:1041F00080FF19C08091E20080FF15C08091E2002D
:104200008E7F8093E2008091E20080618093E200E3
:104210008091D80080628093D80019BC85E080939B
:10422000C1020E94371D8091E10084FF2BC0809164
:10423000E20084FF27C080E189BD82E189BD89B5A4
:10424000982F917080FFFBCF8091D8008F7D809355
:10425000D8008091E1008F7E8093E1008091E200A0
:104260008F7E8093E2008091E20081608093E20083
:104270008091BD02882309F449C084E08093C10283
:104280000E94381D8091E10083FF29C08091E200E7
:1042900083FF25C08091E100877F8093E10082E069
:1042A0008093C1021092BD028091E1008E7F8093C5
:1042B000E1008091E2008E7F8093E2008091E20035
:1042C00080618093E20042E060E080E00E94BA1FDB
:1042D0008091F00088608093F0000E94361DFF916D
:1042E000EF91BF91AF919F918F917F916F915F916E
:1042F0004F913F912F910F900FBE0F901F901895E7
:1043000019BC1092C1020E94331D70CF8091E3004E
:1043100087FD93E09093C102B3CF1F920F920FB627
:104320000F9211242F933F934F935F936F937F933B
:104330008F939F93AF93BF93CF93DF93EF93FF93AD
:10434000D091E900DF708091EC00C82FC17080FD32
:10435000C0E81092E9008091F000877F8093F00020
:1043600078940E94D1211092E9008091F000886039
:104370008093F000CD2BCF70C093E900FF91EF91B7
:10438000DF91CF91BF91AF919F918F917F916F916D
:104390005F914F913F912F910F900FBE0F901F9003
:1043A00018951F93CF93DF93CDB7DEB7AA970FB6BB
:1043B000F894DEBF0FBECDBF82EC92E02091F100F9
:1043C000FC012193CF01F2E08A3C9F07B9F70E94DC
:1043D000441D8091E80083FF1EC18091C20290912C
:1043E000C3029A3008F017C1E92FF0E0E65FFB4DF9
:1043F0000C945323803899F0823809F00CC18091D5
:10440000C6028F70873008F006C18093E900809162
:10441000EB0085FB882780F91092E90006C08091A7
:10442000BE029091BF02911182609091E800977F47
:104430009093E8008093F1001092F1008091E800E1
:104440008E77E5C0882309F4D3C0823009F0E3C039
:104450008091C4028111D6C08091C6028F702FEF67
:10446000280F263008F0D7C08093E9002091EB0098
:1044700020FFC8C0933031F48091EB0080628093BC
:10448000EB00C0C09091EB0090619093EB0021E0B5
:1044900030E001C0220F8A95EAF72093EA001092DB
:1044A000EA008091EB008860EACF8111B4C01091DE
:1044B000C4021F778091E3008078812B8093E30012
:1044C0008091E800877F8093E8000E94EE1F809132
:1044D000E80080FFFCCF8091E30080688093E300D8
:1044E00082E0111183E08093C10295C08058823030
:1044F00008F091C08091C4029091C5028C3D23E0E8
:104500009207A1F583E08A838AE289834FB7F89402
:10451000DE01139620E03EE051E2E32FF0E05093FD
:104520005700E49120FF03C0E295EF703F5FEF700A
:104530008E2F90E0EA30C0F0C7968D939D932F5F49
:10454000243159F74FBF8091E800877F8093E800BE
:104550006AE270E0CE0101960E94FD1E8091E800A3
:104560008B778093E80057C0C096E7CF6091C60272
:104570007091C702AE014F5F5F4F0E943E1EBC01AB
:10458000892B09F448C09091E800977F9093E80048
:1045900089819A810E945B1FE1CF8038E1F580918B
:1045A000E800877F8093E8008091BD028093F1004E
:1045B00045CF811130C09091C402923060F5809156
:1045C000E800877F8093E8009093BD020E94EE1F71
:1045D0008091BD02882311F084E005C08091E30042
:1045E00087FDFACF81E08093C1020E943A1D13C07B
:1045F0008091C402813079F481E0933009F080E049
:104600008093BF021092E9008091E800877F809339
:10461000E8000E94EE1F8091E80083FF0AC08091AD
:10462000E800877F8093E8008091EB0080628093B0
:10463000EB00AA960FB6F894DEBF0FBECDBFDF9198
:10464000CF911F9108950895CF938091C10288233F
:10465000A1F0C091E900CF709091EC00892F81709A
:1046600090FD80E8C82B1092E9008091E80083FD5E
:104670000E94D121CF70C093E900CF91089597FB9C
:10468000072E16F4009407D077FD09D00E94592315
:1046900007FC05D03EF4909581959F4F0895709545
:1046A00061957F4F0895EE0FFF1F0590F491E02D67
:1046B0000994AA1BBB1B51E107C0AA1FBB1FA61769
:1046C000B70710F0A61BB70B881F991F5A95A9F7BB
:1046D00080959095BC01CD010895F999FECF92BDCA
:1046E00081BDF89A992780B50895A8E1B0E042E02D
:1046F00050E00C94A123262FF999FECF92BD81BDE5
:10470000F89A019700B4021639F01FBA20BD0FB60F
:10471000F894FA9AF99A0FBE08950396272F0E94EB
:104720007C230E947B23252F0E947C23242F0C9422
:104730007C230196272F0E947C230C947B23DC0191
:10474000CB01FC01F999FECF06C0F2BDE1BDF89A9C
:10475000319600B40D9241505040B8F70895F89446
:10476000FFCF790C790CD10CD10C230D3F0DA60C89
:10477000A60C4A0DD60DE50DE50DAF0EAF0EB80E29
:10478000B80EBA0EB80EB80EB80EAF0EAF0EBF0E02
:10479000B80EB80EBF0EA41B9B1BA71B991BEC1BCE
:1047A000EC1B991BEC1BEC1BC31BEC1BCE1BD91B7E
:1047B000EC1BEC1BEC1BEC1B991BEC1BEC1B991B67
:1047C000EC1BB51BEC1BEC1BEA1BEA1BEA1BEA1BF0
:1047D000EA1BEA1BEA1BEA1BEA1BE41BEC1BA41BFB
:1047E000971BEC1BEC1BEC1BEC1BEC1BEC1BEC1BE6
:1047F000EC1BEC1BEC1BE41BEC1BEC1B991BEC1BDC
:10480000E81BE81BE81BE81BE81BE81BE81BE81B90
:10481000E81BE41BFA2122220B2322220B23552220
:0848200076220B23CD22D922E0
:10482800F6F73133323630306697C634350000003B
:104838000000012D022808641E140A321E861CE599
:104848001CC41CC01CBC1C016697C63435363233E8
:10485800E200E900EA00B500B600B700CD00830128
:10486800CC008A019201940121022302240225022C
:10487800260227022A02B300B4006F00700081826A
:1048880083E200E900EA00B500B600B700CD008376
:1048980001CC008A019201940121022302240225FD
:1048A80002260227022A02B300B4006F00700081BA
:0C48B800828301020304050607080900C2
:00000001FF
